:0200000480007A
:100000006F00000B1300000013000000130000003D
:100010001300000013000000130000001300000094
:10002000232E11FE232C51FE232A61FE232871FE6C
:100030002326A1FE2324B1FE2322C1FE2320D1FECC
:10004000232EE1FC232CF1FC232A01FD232811FDA2
:100050002326C1FD2324D1FD2322E1FD2320F1FD30
:10006000130101FCEF0000498320C10383228103B7
:1000700003234103832301030325C1028325810256
:1000800003264102832601020327C1018327810140
:100090000328410183280101032EC100832E810022
:1000A000032F4100832F010013010104730020304E
:1000B00097110000938101F0138101A3170500003F
:1000C0001305456F938541826308B5002320050021
:1000D000130545006FF05FFF170500001305456D20
:1000E0001301C1FF970500009385856C630EB50071
:1000F00083260500130545002320A100E7800600A4
:10010000032501006FF01FFE1301410037150000A9
:1001100013050588731045303725000013058580C9
:0C01200073100530EF00C0196F000000E4
:10012C00130101FE232E8100130401022326A4FED9
:10013C008327C4FE23A007008327C4FE23A4070043
:10014C00130000000324C1011301010267800000A9
:10015C00130101FE232E8100130401022326A4FEA9
:10016C00130000000324C101130101026780000089
:10017C00130101FE232E8100130401022326A4FE89
:10018C008327C4FE23A207008327C4FE1307F0FFB6
:10019C0023A0E700130000000324C1011301010296
:1001AC0067800000130101FE232E8100130401025D
:1001BC002326A4FE8327C4FE83A7470093D70701F9
:1001CC0093F7F70F138507000324C10113010102F4
:1001DC0067800000130101FE232E8100130401022D
:1001EC002326A4FE8327C4FE83A7470093D7870149
:1001FC00138507000324C10113010102678000006D
:10020C00130101FE232E1100232C81001304010283
:10021C002326A4FE2324B4FE130000000325C4FEF1
:10022C00EFF05FF893070500E38A07FE8327C4FE0F
:10023C00032784FE23A0E700130000008320C101E4
:10024C00032481011301010267800000130101FEE8
:10025C00232E8100130401022326A4FE2324B4FEC2
:10026C00832784FE03A7C7008327C4FE23A4E700CB
:10027C00832784FE83A707001387F7FF832784FE59
:10028C0083A74700939787003367F700832784FE83
:10029C0083A78700939707013367F7008327C4FE72
:1002AC0023A6E700130000000324C101130101027F
:1002BC0067800000130101FD232611022324810213
:1002CC0013040103930710002320F4FE930720006E
:1002DC00232EF4FC93073000232CF4FC232604FE7D
:1002EC00B70702F013850701EFF09FE8370502F01E
:1002FC00EFF01FE6B70702F013850704EFF05FE29B
:10030C00B70702F0373700001307F7ED23A0E7001B
:10031C00B70702F0938707041307703E23A2E70088
:10032C00B70702F09387070437070100130727006C
:10033C0023A0E700B70702F0938707011307F0002B
:10034C0023A0E700B70702F09387070113071000FB
:10035C0023A2E700B70700F01307F00F23A4E70070
:10036C00B70700F023A20700B70701F0130720001E
:10037C0023A2E700B707008013854776EF0080249F
:10038C00B70700801307D003238AE77A832704FE7C
:10039C000327C4FEB307F7002326F4FE0327C4FD8E
:1003AC00832784FDB307F7000327C4FEB307F700C8
:1003BC002326F4FE232404FE6F000001832784FE11
:1003CC00938717002324F4FE032784FEB7C700008D
:1003DC009387F734E3F4E7FEB70700F083A74700F1
:1003EC0093F607FCB70700F083A747009387170025
:1003FC0013F7F703B70700F033E7E60023A2E70093
:10040C00B707008003A7077BB70700809387477B5C
:10041C00B307F70003C707009307A000E318F7F62C
:10042C00B707008003A7077B93071000631AF70434
:10043C00B707008013850777EF00C018B70700F0E7
:10044C0083A707009305800013850700EF00C028E1
:10045C00B707008013850778EF00C016B70700F0C8
:10046C0083A747009305800013850700EF00C02683
:10047C00B707008013854779EF00C0146F000001A7
:10048C00B70700801385477BEF00C013930710005C
:10049C002322F4FE6F004002B70700801387477BCE
:1004AC00832744FEB307F70023800700832744FE0D
:1004BC00938717002322F4FE032744FE9307F001D1
:1004CC0063CEE700B70700801387477B832744FE82
:1004DC00B307F70083C70700E39007FCB70700805A
:1004EC0023A8077A6FF09FEA130101FF23268100EE
:1004FC0013040101B70702F09387070183A70700D4
:10050C0093F7170063820706B70700F003A74700AD
:10051C00B70700F01347070823A2E700B70702F05C
:10052C00938707011307100023A0E7006F00C00397
:10053C00B70701F003A60700B707008083A7077B66
:10054C0013871700B707008023A8E77AB707008046
:10055C0083A6077B1377F60FB70700809387477B3B
:10056C00B387F6002380E700B70701F083A74700A5
:10057C0093F70720E39E07FA130000000324C10041
:10058C001301010167800000130101FE232E81007D
:10059C0013040102232604FE6F0000018327C4FE0E
:1005AC00938717002326F4FE0327C4FE9307300617
:1005BC00E3F6E7FE130000000324C101130101025E
:1005CC0067800000130101FE232E1100232C8100F3
:1005DC00130401022326A4FE6F000002EFF0DFFAE1
:1005EC008327C4FE138717002326E4FE03C70700E6
:1005FC00B70701F023A0E7008327C4FE83C70700D9
:10060C00E39E07FC130000008320C1010324810139
:10061C001301010267800000130101FD2326110262
:10062C002324810213040103232EA4FC232604FE9D
:10063C006F0000018327C4FE938717002326F4FE66
:10064C008327C4FE0327C4FDB307F70083C7070045
:10065C00E39207FE8327C4FE9387F7FF2326F4FE5D
:10066C008327C4FE0327C4FDB307F70003C70700A5
:10067C009307A000631EF7028327C4FE9387F7FF3E
:10068C002326F4FE6F00C002EFF01FF08327C4FE98
:10069C001387F7FF2326E4FE138707008327C4FD87
:1006AC00B387E70003C70700B70701F023A0E700F3
:1006BC008327C4FEE3DA07FCB7070080138547796C
:1006CC00EFF05FF0130000008320C10203248102CD
:1006DC001301010367800000130101FD23261102A1
:1006EC002324810213040103232EA4FC232CB4FC29
:1006FC00832784FD9387F7FF939727002326F4FE27
:10070C006F00C003EFF05FE80327C4FD8327C4FE2E
:10071C00B357F70013F7F700B70700809387877973
:10072C00B307F70003C70700B70701F023A0E700E2
:10073C008327C4FE9387C7FF2326F4FE8327C4FEBA
:10074C00E3D207FC130000008320C10203248102C2
:08075C00130101036780000096
:10076400434F44452053544152540A004750494F83
:1007740020696E7075742069733A0A000A475049FB
:100784004F206F75747075742069733A0A00000005
:100794000A000000303132333435363738394142BB
:0507A40043444546003E
:0407AC000000000049
:040000058000000077
:00000001FF
